{
  "contractName": "CoinFactory",
  "abi": [
    {
      "anonymous": false,
      "inputs": [
        {
          "indexed": false,
          "internalType": "address",
          "name": "owner",
          "type": "address"
        },
        {
          "indexed": false,
          "internalType": "address",
          "name": "token",
          "type": "address"
        },
        {
          "indexed": false,
          "internalType": "string",
          "name": "name",
          "type": "string"
        }
      ],
      "name": "TokenCreated",
      "type": "event"
    },
    {
      "inputs": [
        {
          "internalType": "address",
          "name": "",
          "type": "address"
        }
      ],
      "name": "owners",
      "outputs": [
        {
          "internalType": "string",
          "name": "",
          "type": "string"
        }
      ],
      "stateMutability": "view",
      "type": "function",
      "constant": true
    },
    {
      "inputs": [
        {
          "internalType": "string",
          "name": "",
          "type": "string"
        }
      ],
      "name": "tokensCreated",
      "outputs": [
        {
          "internalType": "address",
          "name": "",
          "type": "address"
        }
      ],
      "stateMutability": "view",
      "type": "function",
      "constant": true
    },
    {
      "inputs": [
        {
          "internalType": "string",
          "name": "_name",
          "type": "string"
        },
        {
          "internalType": "string",
          "name": "_symbol",
          "type": "string"
        },
        {
          "internalType": "uint256",
          "name": "_amount",
          "type": "uint256"
        }
      ],
      "name": "createERC20Token",
      "outputs": [
        {
          "internalType": "address",
          "name": "",
          "type": "address"
        }
      ],
      "stateMutability": "nonpayable",
      "type": "function"
    },
    {
      "inputs": [],
      "name": "numberOfTokens",
      "outputs": [
        {
          "internalType": "uint256",
          "name": "",
          "type": "uint256"
        }
      ],
      "stateMutability": "view",
      "type": "function",
      "constant": true
    },
    {
      "inputs": [],
      "name": "getNames",
      "outputs": [
        {
          "internalType": "string[]",
          "name": "",
          "type": "string[]"
        }
      ],
      "stateMutability": "view",
      "type": "function",
      "constant": true
    }
  ],
  "bytecode": "0x608060405234801561001057600080fd5b506127a9806100206000396000f3fe60806040523480156200001157600080fd5b50600436106200005e5760003560e01c8063022914a71462000063578063933edf6814620000995780639b6d5e4b14620000cf578063cd838f0f1462000105578063f9f16ef21462000127575b600080fd5b6200008160048036038101906200007b919062000654565b62000149565b6040516200009091906200096e565b60405180910390f35b620000b76004803603810190620000b19190620006c5565b620001fd565b604051620000c69190620008e9565b60405180910390f35b620000ed6004803603810190620000e7919062000680565b620003c1565b604051620000fc9190620008e9565b60405180910390f35b6200010f6200040a565b6040516200011e91906200094a565b60405180910390f35b62000131620004f9565b604051620001409190620009ed565b60405180910390f35b60026020528060005260406000206000915090508054600181600116156101000203166002900480601f016020809104026020016040519081016040528092919081815260200182805460018160011615610100020316600290048015620001f55780601f10620001c957610100808354040283529160200191620001f5565b820191906000526020600020905b815481529060010190602001808311620001d757829003601f168201915b505050505081565b600083838333604051620002119062000506565b62000220949392919062000992565b604051809103906000f0801580156200023d573d6000803e3d6000fd5b506000806101000a81548173ffffffffffffffffffffffffffffffffffffffff021916908373ffffffffffffffffffffffffffffffffffffffff16021790555060008054906101000a900473ffffffffffffffffffffffffffffffffffffffff16600185604051620002b09190620008d0565b908152602001604051809103902060006101000a81548173ffffffffffffffffffffffffffffffffffffffff021916908373ffffffffffffffffffffffffffffffffffffffff1602179055506003849080600181540180825580915050600190039060005260206000200160009091909190915090805190602001906200033992919062000514565b507fb51c8cbe199ffe8b0d1d39b62d473569750653cb18b165f77ae423b3900180ad3360008054906101000a900473ffffffffffffffffffffffffffffffffffffffff16856040516200038f9392919062000906565b60405180910390a160008054906101000a900473ffffffffffffffffffffffffffffffffffffffff1690509392505050565b6001818051602081018201805184825260208301602085012081835280955050505050506000915054906101000a900473ffffffffffffffffffffffffffffffffffffffff1681565b60606003805480602002602001604051908101604052809291908181526020016000905b82821015620004f0578382906000526020600020018054600181600116156101000203166002900480601f016020809104026020016040519081016040528092919081815260200182805460018160011615610100020316600290048015620004db5780601f10620004af57610100808354040283529160200191620004db565b820191906000526020600020905b815481529060010190602001808311620004bd57829003601f168201915b5050505050815260200190600101906200042e565b50505050905090565b6000600380549050905090565b611b8b8062000be983390190565b828054600181600116156101000203166002900490600052602060002090601f0160209004810192826200054c576000855562000598565b82601f106200056757805160ff191683800117855562000598565b8280016001018555821562000598579182015b82811115620005975782518255916020019190600101906200057a565b5b509050620005a79190620005ab565b5090565b5b80821115620005c6576000816000905550600101620005ac565b5090565b600081359050620005db8162000bb4565b92915050565b600082601f830112620005f357600080fd5b81356200060a620006048262000a3e565b62000a0a565b915080825260208301602083018583830111156200062757600080fd5b6200063483828462000b5c565b50505092915050565b6000813590506200064e8162000bce565b92915050565b6000602082840312156200066757600080fd5b60006200067784828501620005ca565b91505092915050565b6000602082840312156200069357600080fd5b600082013567ffffffffffffffff811115620006ae57600080fd5b620006bc84828501620005e1565b91505092915050565b600080600060608486031215620006db57600080fd5b600084013567ffffffffffffffff811115620006f657600080fd5b6200070486828701620005e1565b935050602084013567ffffffffffffffff8111156200072257600080fd5b6200073086828701620005e1565b925050604062000743868287016200063d565b9150509250925092565b60006200075b838362000806565b905092915050565b6200076e8162000b20565b82525050565b6200077f8162000ae2565b82525050565b6000620007928262000a81565b6200079e818562000aa4565b935083602082028501620007b28562000a71565b8060005b85811015620007f45784840389528151620007d285826200074d565b9450620007df8362000a97565b925060208a01995050600181019050620007b6565b50829750879550505050505092915050565b6000620008138262000a8c565b6200081f818562000ab5565b93506200083181856020860162000b6b565b6200083c8162000ba3565b840191505092915050565b6000620008548262000a8c565b62000860818562000ac6565b93506200087281856020860162000b6b565b6200087d8162000ba3565b840191505092915050565b6000620008958262000a8c565b620008a1818562000ad7565b9350620008b381856020860162000b6b565b80840191505092915050565b620008ca8162000b16565b82525050565b6000620008de828462000888565b915081905092915050565b600060208201905062000900600083018462000774565b92915050565b60006060820190506200091d600083018662000763565b6200092c602083018562000774565b818103604083015262000940818462000847565b9050949350505050565b6000602082019050818103600083015262000966818462000785565b905092915050565b600060208201905081810360008301526200098a818462000847565b905092915050565b60006080820190508181036000830152620009ae818762000847565b90508181036020830152620009c4818662000847565b9050620009d56040830185620008bf565b620009e4606083018462000763565b95945050505050565b600060208201905062000a046000830184620008bf565b92915050565b6000604051905081810181811067ffffffffffffffff8211171562000a345762000a3362000ba1565b5b8060405250919050565b600067ffffffffffffffff82111562000a5c5762000a5b62000ba1565b5b601f19601f8301169050602081019050919050565b6000819050602082019050919050565b600081519050919050565b600081519050919050565b6000602082019050919050565b600082825260208201905092915050565b600082825260208201905092915050565b600082825260208201905092915050565b600081905092915050565b600062000aef8262000af6565b9050919050565b600073ffffffffffffffffffffffffffffffffffffffff82169050919050565b6000819050919050565b600062000b2d8262000b34565b9050919050565b600062000b418262000b48565b9050919050565b600062000b558262000af6565b9050919050565b82818337600083830152505050565b60005b8381101562000b8b57808201518184015260208101905062000b6e565b8381111562000b9b576000848401525b50505050565bfe5b6000601f19601f8301169050919050565b62000bbf8162000ae2565b811462000bcb57600080fd5b50565b62000bd98162000b16565b811462000be557600080fd5b5056fe60806040523480156200001157600080fd5b5060405162001b8b38038062001b8b833981810160405260808110156200003757600080fd5b81019080805160405193929190846401000000008211156200005857600080fd5b838201915060208201858111156200006f57600080fd5b82518660018202830111640100000000821117156200008d57600080fd5b8083526020830192505050908051906020019080838360005b83811015620000c3578082015181840152602081019050620000a6565b50505050905090810190601f168015620000f15780820380516001836020036101000a031916815260200191505b50604052602001805160405193929190846401000000008211156200011557600080fd5b838201915060208201858111156200012c57600080fd5b82518660018202830111640100000000821117156200014a57600080fd5b8083526020830192505050908051906020019080838360005b838110156200018057808201518184015260208101905062000163565b50505050905090810190601f168015620001ae5780820380516001836020036101000a031916815260200191505b50604052602001805190602001909291908051906020019092919050505083838160039080519060200190620001e6929190620004d4565b508060049080519060200190620001ff929190620004d4565b506012600560006101000a81548160ff021916908360ff16021790555050506200024781620002336200025160201b60201c565b60ff16600a0a84026200026860201b60201c565b505050506200058a565b6000600560009054906101000a900460ff16905090565b600073ffffffffffffffffffffffffffffffffffffffff168273ffffffffffffffffffffffffffffffffffffffff1614156200030c576040517f08c379a000000000000000000000000000000000000000000000000000000000815260040180806020018281038252601f8152602001807f45524332303a206d696e7420746f20746865207a65726f20616464726573730081525060200191505060405180910390fd5b62000320600083836200044660201b60201c565b6200033c816002546200044b60201b62000ded1790919060201c565b6002819055506200039a816000808573ffffffffffffffffffffffffffffffffffffffff1673ffffffffffffffffffffffffffffffffffffffff168152602001908152602001600020546200044b60201b62000ded1790919060201c565b6000808473ffffffffffffffffffffffffffffffffffffffff1673ffffffffffffffffffffffffffffffffffffffff168152602001908152602001600020819055508173ffffffffffffffffffffffffffffffffffffffff16600073ffffffffffffffffffffffffffffffffffffffff167fddf252ad1be2c89b69c2b068fc378daa952ba7f163c4a11628f55a4df523b3ef836040518082815260200191505060405180910390a35050565b505050565b600080828401905083811015620004ca576040517f08c379a000000000000000000000000000000000000000000000000000000000815260040180806020018281038252601b8152602001807f536166654d6174683a206164646974696f6e206f766572666c6f77000000000081525060200191505060405180910390fd5b8091505092915050565b828054600181600116156101000203166002900490600052602060002090601f0160209004810192826200050c576000855562000558565b82601f106200052757805160ff191683800117855562000558565b8280016001018555821562000558579182015b82811115620005575782518255916020019190600101906200053a565b5b5090506200056791906200056b565b5090565b5b80821115620005865760008160009055506001016200056c565b5090565b6115f1806200059a6000396000f3fe608060405234801561001057600080fd5b50600436106100cf5760003560e01c80634e6ec2471161008c57806395d89b411161006657806395d89b41146103d6578063a457c2d714610459578063a9059cbb146104bd578063dd62ed3e14610521576100cf565b80634e6ec247146102e25780636161eb181461033057806370a082311461037e576100cf565b806306fdde03146100d4578063095ea7b31461015757806318160ddd146101bb57806323b872dd146101d9578063313ce5671461025d578063395093511461027e575b600080fd5b6100dc610599565b6040518080602001828103825283818151815260200191508051906020019080838360005b8381101561011c578082015181840152602081019050610101565b50505050905090810190601f1680156101495780820380516001836020036101000a031916815260200191505b509250505060405180910390f35b6101a36004803603604081101561016d57600080fd5b81019080803573ffffffffffffffffffffffffffffffffffffffff1690602001909291908035906020019092919050505061063b565b60405180821515815260200191505060405180910390f35b6101c3610659565b6040518082815260200191505060405180910390f35b610245600480360360608110156101ef57600080fd5b81019080803573ffffffffffffffffffffffffffffffffffffffff169060200190929190803573ffffffffffffffffffffffffffffffffffffffff16906020019092919080359060200190929190505050610663565b60405180821515815260200191505060405180910390f35b61026561073c565b604051808260ff16815260200191505060405180910390f35b6102ca6004803603604081101561029457600080fd5b81019080803573ffffffffffffffffffffffffffffffffffffffff16906020019092919080359060200190929190505050610753565b60405180821515815260200191505060405180910390f35b61032e600480360360408110156102f857600080fd5b81019080803573ffffffffffffffffffffffffffffffffffffffff16906020019092919080359060200190929190505050610806565b005b61037c6004803603604081101561034657600080fd5b81019080803573ffffffffffffffffffffffffffffffffffffffff169060200190929190803590602001909291905050506109cd565b005b6103c06004803603602081101561039457600080fd5b81019080803573ffffffffffffffffffffffffffffffffffffffff169060200190929190505050610b91565b6040518082815260200191505060405180910390f35b6103de610bd9565b6040518080602001828103825283818151815260200191508051906020019080838360005b8381101561041e578082015181840152602081019050610403565b50505050905090810190601f16801561044b5780820380516001836020036101000a031916815260200191505b509250505060405180910390f35b6104a56004803603604081101561046f57600080fd5b81019080803573ffffffffffffffffffffffffffffffffffffffff16906020019092919080359060200190929190505050610c7b565b60405180821515815260200191505060405180910390f35b610509600480360360408110156104d357600080fd5b81019080803573ffffffffffffffffffffffffffffffffffffffff16906020019092919080359060200190929190505050610d48565b60405180821515815260200191505060405180910390f35b6105836004803603604081101561053757600080fd5b81019080803573ffffffffffffffffffffffffffffffffffffffff169060200190929190803573ffffffffffffffffffffffffffffffffffffffff169060200190929190505050610d66565b6040518082815260200191505060405180910390f35b606060038054600181600116156101000203166002900480601f0160208091040260200160405190810160405280929190818152602001828054600181600116156101000203166002900480156106315780601f1061060657610100808354040283529160200191610631565b820191906000526020600020905b81548152906001019060200180831161061457829003601f168201915b5050505050905090565b600061064f610648610e75565b8484610e7d565b6001905092915050565b6000600254905090565b6000610670848484611074565b6107318461067c610e75565b61072c8560405180606001604052806028815260200161150560289139600160008b73ffffffffffffffffffffffffffffffffffffffff1673ffffffffffffffffffffffffffffffffffffffff16815260200190815260200160002060006106e2610e75565b73ffffffffffffffffffffffffffffffffffffffff1673ffffffffffffffffffffffffffffffffffffffff168152602001908152602001600020546113359092919063ffffffff16565b610e7d565b600190509392505050565b6000600560009054906101000a900460ff16905090565b60006107fc610760610e75565b846107f78560016000610771610e75565b73ffffffffffffffffffffffffffffffffffffffff1673ffffffffffffffffffffffffffffffffffffffff16815260200190815260200160002060008973ffffffffffffffffffffffffffffffffffffffff1673ffffffffffffffffffffffffffffffffffffffff16815260200190815260200160002054610ded90919063ffffffff16565b610e7d565b6001905092915050565b600073ffffffffffffffffffffffffffffffffffffffff168273ffffffffffffffffffffffffffffffffffffffff1614156108a9576040517f08c379a000000000000000000000000000000000000000000000000000000000815260040180806020018281038252601f8152602001807f45524332303a206d696e7420746f20746865207a65726f20616464726573730081525060200191505060405180910390fd5b6108b5600083836113ef565b6108ca81600254610ded90919063ffffffff16565b600281905550610921816000808573ffffffffffffffffffffffffffffffffffffffff1673ffffffffffffffffffffffffffffffffffffffff16815260200190815260200160002054610ded90919063ffffffff16565b6000808473ffffffffffffffffffffffffffffffffffffffff1673ffffffffffffffffffffffffffffffffffffffff168152602001908152602001600020819055508173ffffffffffffffffffffffffffffffffffffffff16600073ffffffffffffffffffffffffffffffffffffffff167fddf252ad1be2c89b69c2b068fc378daa952ba7f163c4a11628f55a4df523b3ef836040518082815260200191505060405180910390a35050565b600073ffffffffffffffffffffffffffffffffffffffff168273ffffffffffffffffffffffffffffffffffffffff161415610a53576040517f08c379a000000000000000000000000000000000000000000000000000000000815260040180806020018281038252602181526020018061152d6021913960400191505060405180910390fd5b610a5f826000836113ef565b610aca8160405180606001604052806022815260200161149b602291396000808673ffffffffffffffffffffffffffffffffffffffff1673ffffffffffffffffffffffffffffffffffffffff168152602001908152602001600020546113359092919063ffffffff16565b6000808473ffffffffffffffffffffffffffffffffffffffff1673ffffffffffffffffffffffffffffffffffffffff16815260200190815260200160002081905550610b21816002546113f490919063ffffffff16565b600281905550600073ffffffffffffffffffffffffffffffffffffffff168273ffffffffffffffffffffffffffffffffffffffff167fddf252ad1be2c89b69c2b068fc378daa952ba7f163c4a11628f55a4df523b3ef836040518082815260200191505060405180910390a35050565b60008060008373ffffffffffffffffffffffffffffffffffffffff1673ffffffffffffffffffffffffffffffffffffffff168152602001908152602001600020549050919050565b606060048054600181600116156101000203166002900480601f016020809104026020016040519081016040528092919081815260200182805460018160011615610100020316600290048015610c715780601f10610c4657610100808354040283529160200191610c71565b820191906000526020600020905b815481529060010190602001808311610c5457829003601f168201915b5050505050905090565b6000610d3e610c88610e75565b84610d39856040518060600160405280602581526020016115976025913960016000610cb2610e75565b73ffffffffffffffffffffffffffffffffffffffff1673ffffffffffffffffffffffffffffffffffffffff16815260200190815260200160002060008a73ffffffffffffffffffffffffffffffffffffffff1673ffffffffffffffffffffffffffffffffffffffff168152602001908152602001600020546113359092919063ffffffff16565b610e7d565b6001905092915050565b6000610d5c610d55610e75565b8484611074565b6001905092915050565b6000600160008473ffffffffffffffffffffffffffffffffffffffff1673ffffffffffffffffffffffffffffffffffffffff16815260200190815260200160002060008373ffffffffffffffffffffffffffffffffffffffff1673ffffffffffffffffffffffffffffffffffffffff16815260200190815260200160002054905092915050565b600080828401905083811015610e6b576040517f08c379a000000000000000000000000000000000000000000000000000000000815260040180806020018281038252601b8152602001807f536166654d6174683a206164646974696f6e206f766572666c6f77000000000081525060200191505060405180910390fd5b8091505092915050565b600033905090565b600073ffffffffffffffffffffffffffffffffffffffff168373ffffffffffffffffffffffffffffffffffffffff161415610f03576040517f08c379a00000000000000000000000000000000000000000000000000000000081526004018080602001828103825260248152602001806115736024913960400191505060405180910390fd5b600073ffffffffffffffffffffffffffffffffffffffff168273ffffffffffffffffffffffffffffffffffffffff161415610f89576040517f08c379a00000000000000000000000000000000000000000000000000000000081526004018080602001828103825260228152602001806114bd6022913960400191505060405180910390fd5b80600160008573ffffffffffffffffffffffffffffffffffffffff1673ffffffffffffffffffffffffffffffffffffffff16815260200190815260200160002060008473ffffffffffffffffffffffffffffffffffffffff1673ffffffffffffffffffffffffffffffffffffffff168152602001908152602001600020819055508173ffffffffffffffffffffffffffffffffffffffff168373ffffffffffffffffffffffffffffffffffffffff167f8c5be1e5ebec7d5bd14f71427d1e84f3dd0314c0f7b2291e5b200ac8c7c3b925836040518082815260200191505060405180910390a3505050565b600073ffffffffffffffffffffffffffffffffffffffff168373ffffffffffffffffffffffffffffffffffffffff1614156110fa576040517f08c379a000000000000000000000000000000000000000000000000000000000815260040180806020018281038252602581526020018061154e6025913960400191505060405180910390fd5b600073ffffffffffffffffffffffffffffffffffffffff168273ffffffffffffffffffffffffffffffffffffffff161415611180576040517f08c379a00000000000000000000000000000000000000000000000000000000081526004018080602001828103825260238152602001806114786023913960400191505060405180910390fd5b61118b8383836113ef565b6111f6816040518060600160405280602681526020016114df602691396000808773ffffffffffffffffffffffffffffffffffffffff1673ffffffffffffffffffffffffffffffffffffffff168152602001908152602001600020546113359092919063ffffffff16565b6000808573ffffffffffffffffffffffffffffffffffffffff1673ffffffffffffffffffffffffffffffffffffffff16815260200190815260200160002081905550611289816000808573ffffffffffffffffffffffffffffffffffffffff1673ffffffffffffffffffffffffffffffffffffffff16815260200190815260200160002054610ded90919063ffffffff16565b6000808473ffffffffffffffffffffffffffffffffffffffff1673ffffffffffffffffffffffffffffffffffffffff168152602001908152602001600020819055508173ffffffffffffffffffffffffffffffffffffffff168373ffffffffffffffffffffffffffffffffffffffff167fddf252ad1be2c89b69c2b068fc378daa952ba7f163c4a11628f55a4df523b3ef836040518082815260200191505060405180910390a3505050565b60008383111582906113e2576040517f08c379a00000000000000000000000000000000000000000000000000000000081526004018080602001828103825283818151815260200191508051906020019080838360005b838110156113a757808201518184015260208101905061138c565b50505050905090810190601f1680156113d45780820380516001836020036101000a031916815260200191505b509250505060405180910390fd5b5082840390509392505050565b505050565b60008282111561146c576040517f08c379a000000000000000000000000000000000000000000000000000000000815260040180806020018281038252601e8152602001807f536166654d6174683a207375627472616374696f6e206f766572666c6f77000081525060200191505060405180910390fd5b81830390509291505056fe45524332303a207472616e7366657220746f20746865207a65726f206164647265737345524332303a206275726e20616d6f756e7420657863656564732062616c616e636545524332303a20617070726f766520746f20746865207a65726f206164647265737345524332303a207472616e7366657220616d6f756e7420657863656564732062616c616e636545524332303a207472616e7366657220616d6f756e74206578636565647320616c6c6f77616e636545524332303a206275726e2066726f6d20746865207a65726f206164647265737345524332303a207472616e736665722066726f6d20746865207a65726f206164647265737345524332303a20617070726f76652066726f6d20746865207a65726f206164647265737345524332303a2064656372656173656420616c6c6f77616e63652062656c6f77207a65726fa26469706673582212202c2651cd58f2cf7b325044cf71a0985c7bec09829d609c72502e2ef40c0a529e64736f6c63430007050033a26469706673582212208d1bbdacc7959a4eb7b92223f11aa5da19050aad34bb6189e64c7171af49a75264736f6c63430007050033",
  "source": "// SPDX-License-Identifier: GPL-3.0\r\n\r\npragma solidity ^0.7.5;\r\npragma experimental ABIEncoderV2;\r\n\r\nimport './Token.sol';\r\n\r\ncontract CoinFactory {\r\n    \r\n    Token token;\r\n    mapping (string => address) public tokensCreated;\r\n    mapping (address => string) public owners;\r\n    string[] private names;\r\n    \r\n    event TokenCreated (address owner, address token, string name);\r\n\r\n    function createERC20Token (string memory _name, string memory _symbol, uint256 _amount) external returns (address) {\r\n        token = new Token (_name, _symbol, _amount, msg.sender);\r\n        tokensCreated[_name] = address(token);\r\n        names.push(_name);\r\n        emit TokenCreated(msg.sender, address(token), _symbol);\r\n        return address(token);\r\n    }\r\n    \r\n    function numberOfTokens () external view returns (uint) {\r\n        return names.length;\r\n    }\r\n    \r\n    function getNames() external view returns (string[] memory) {\r\n        return names;\r\n    }\r\n}",
  "sourcePath": "C:\\Users\\datej\\OneDrive\\Desktop\\crypto-internship\\contracts_cf\\contracts\\CoinFactory.sol",
  "compiler": {
    "name": "solc",
    "version": "0.7.5+commit.eb77ed08.Emscripten.clang"
  },
  "schemaVersion": "3.0.23",
  "updatedAt": "2021-08-04T17:01:40.765Z",
  "networkType": "ethereum",
  "devdoc": {
    "kind": "dev",
    "methods": {},
    "version": 1
  },
  "userdoc": {
    "kind": "user",
    "methods": {},
    "version": 1
  }
}