{
  "contractName": "CoinFactory",
  "abi": [
    {
      "anonymous": false,
      "inputs": [
        {
          "indexed": false,
          "internalType": "address",
          "name": "owner",
          "type": "address"
        },
        {
          "indexed": false,
          "internalType": "address",
          "name": "token",
          "type": "address"
        },
        {
          "indexed": false,
          "internalType": "string",
          "name": "name",
          "type": "string"
        }
      ],
      "name": "TokenCreated",
      "type": "event"
    },
    {
      "constant": true,
      "inputs": [
        {
          "internalType": "address",
          "name": "",
          "type": "address"
        }
      ],
      "name": "owners",
      "outputs": [
        {
          "internalType": "string",
          "name": "",
          "type": "string"
        }
      ],
      "payable": false,
      "stateMutability": "view",
      "type": "function"
    },
    {
      "constant": true,
      "inputs": [
        {
          "internalType": "string",
          "name": "",
          "type": "string"
        }
      ],
      "name": "tokensCreated",
      "outputs": [
        {
          "internalType": "address",
          "name": "",
          "type": "address"
        }
      ],
      "payable": false,
      "stateMutability": "view",
      "type": "function"
    },
    {
      "constant": false,
      "inputs": [
        {
          "internalType": "string",
          "name": "_name",
          "type": "string"
        },
        {
          "internalType": "string",
          "name": "_symbol",
          "type": "string"
        },
        {
          "internalType": "uint256",
          "name": "_totalSupply",
          "type": "uint256"
        }
      ],
      "name": "createERC20Token",
      "outputs": [
        {
          "internalType": "address",
          "name": "",
          "type": "address"
        }
      ],
      "payable": false,
      "stateMutability": "nonpayable",
      "type": "function"
    },
    {
      "constant": true,
      "inputs": [],
      "name": "numberOfTokens",
      "outputs": [
        {
          "internalType": "uint256",
          "name": "",
          "type": "uint256"
        }
      ],
      "payable": false,
      "stateMutability": "view",
      "type": "function"
    },
    {
      "constant": true,
      "inputs": [],
      "name": "getNames",
      "outputs": [
        {
          "internalType": "string[]",
          "name": "",
          "type": "string[]"
        }
      ],
      "payable": false,
      "stateMutability": "view",
      "type": "function"
    }
  ],
  "bytecode": "0x608060405234801561001057600080fd5b50611f53806100206000396000f3fe60806040523480156200001157600080fd5b50600436106200005e5760003560e01c8063022914a71462000063578063933edf6814620000995780639b6d5e4b14620000cf578063cd838f0f1462000105578063f9f16ef21462000127575b600080fd5b6200008160048036036200007b9190810190620006ad565b62000149565b60405162000090919062000a59565b60405180910390f35b620000b76004803603620000b19190810190620006d9565b620001fd565b604051620000c6919062000973565b60405180910390f35b620000ed6004803603620000e791908101906200076b565b620003d4565b604051620000fc919062000973565b60405180910390f35b6200010f6200041d565b6040516200011e9190620009d6565b60405180910390f35b620001316200050c565b60405162000140919062000a7d565b60405180910390f35b60026020528060005260406000206000915090508054600181600116156101000203166002900480601f016020809104026020016040519081016040528092919081815260200182805460018160011615610100020316600290048015620001f55780601f10620001c957610100808354040283529160200191620001f5565b820191906000526020600020905b815481529060010190602001808311620001d757829003601f168201915b505050505081565b6000858585858533604051620002139062000519565b6200022496959493929190620009fa565b604051809103906000f08015801562000241573d6000803e3d6000fd5b506000806101000a81548173ffffffffffffffffffffffffffffffffffffffff021916908373ffffffffffffffffffffffffffffffffffffffff1602179055506000809054906101000a900473ffffffffffffffffffffffffffffffffffffffff1660018787604051620002b792919062000958565b908152602001604051809103902060006101000a81548173ffffffffffffffffffffffffffffffffffffffff021916908373ffffffffffffffffffffffffffffffffffffffff16021790555060038686909180600181540180825580915050906001820390600052602060002001600090919293909192939091929091925091906200034592919062000527565b50507fb51c8cbe199ffe8b0d1d39b62d473569750653cb18b165f77ae423b3900180ad336000809054906101000a900473ffffffffffffffffffffffffffffffffffffffff1686866040516200039f949392919062000990565b60405180910390a16000809054906101000a900473ffffffffffffffffffffffffffffffffffffffff16905095945050505050565b6001818051602081018201805184825260208301602085012081835280955050505050506000915054906101000a900473ffffffffffffffffffffffffffffffffffffffff1681565b60606003805480602002602001604051908101604052809291908181526020016000905b8282101562000503578382906000526020600020018054600181600116156101000203166002900480601f016020809104026020016040519081016040528092919081815260200182805460018160011615610100020316600290048015620004ee5780601f10620004c257610100808354040283529160200191620004ee565b820191906000526020600020905b815481529060010190602001808311620004d057829003601f168201915b50505050508152602001906001019062000441565b50505050905090565b6000600380549050905090565b6112a68062000c6b83390190565b828054600181600116156101000203166002900490600052602060002090601f016020900481019282601f106200056a57803560ff19168380011785556200059b565b828001600101855582156200059b579182015b828111156200059a5782358255916020019190600101906200057d565b5b509050620005aa9190620005ae565b5090565b620005d391905b80821115620005cf576000816000905550600101620005b5565b5090565b90565b600081359050620005e78162000c36565b92915050565b60008083601f8401126200060057600080fd5b8235905067ffffffffffffffff8111156200061a57600080fd5b6020830191508360018202830111156200063357600080fd5b9250929050565b600082601f8301126200064c57600080fd5b8135620006636200065d8262000ac8565b62000a9a565b915080825260208301602083018583830111156200068057600080fd5b6200068d83828462000be0565b50505092915050565b600081359050620006a78162000c50565b92915050565b600060208284031215620006c057600080fd5b6000620006d084828501620005d6565b91505092915050565b600080600080600060608688031215620006f257600080fd5b600086013567ffffffffffffffff8111156200070d57600080fd5b6200071b88828901620005ed565b9550955050602086013567ffffffffffffffff8111156200073b57600080fd5b6200074988828901620005ed565b935093505060406200075e8882890162000696565b9150509295509295909350565b6000602082840312156200077e57600080fd5b600082013567ffffffffffffffff8111156200079957600080fd5b620007a7848285016200063a565b91505092915050565b6000620007be8383620008c5565b905092915050565b620007d18162000ba4565b82525050565b620007e28162000b66565b82525050565b6000620007f58262000b05565b62000801818562000b28565b935083602082028501620008158562000af5565b8060005b85811015620008575784840389528151620008358582620007b0565b9450620008428362000b1b565b925060208a0199505060018101905062000819565b50829750879550505050505092915050565b600062000877838562000b4a565b93506200088683858462000be0565b620008918362000c25565b840190509392505050565b6000620008aa838562000b5b565b9350620008b983858462000be0565b82840190509392505050565b6000620008d28262000b10565b620008de818562000b39565b9350620008f081856020860162000bef565b620008fb8162000c25565b840191505092915050565b6000620009138262000b10565b6200091f818562000b4a565b93506200093181856020860162000bef565b6200093c8162000c25565b840191505092915050565b620009528162000b9a565b82525050565b6000620009678284866200089c565b91508190509392505050565b60006020820190506200098a6000830184620007d7565b92915050565b6000606082019050620009a76000830187620007c6565b620009b66020830186620007d7565b8181036040830152620009cb81848662000869565b905095945050505050565b60006020820190508181036000830152620009f28184620007e8565b905092915050565b6000608082019050818103600083015262000a1781888a62000869565b9050818103602083015262000a2e81868862000869565b905062000a3f604083018562000947565b62000a4e6060830184620007c6565b979650505050505050565b6000602082019050818103600083015262000a75818462000906565b905092915050565b600060208201905062000a94600083018462000947565b92915050565b6000604051905081810181811067ffffffffffffffff8211171562000abe57600080fd5b8060405250919050565b600067ffffffffffffffff82111562000ae057600080fd5b601f19601f8301169050602081019050919050565b6000819050602082019050919050565b600081519050919050565b600081519050919050565b6000602082019050919050565b600082825260208201905092915050565b600082825260208201905092915050565b600082825260208201905092915050565b600081905092915050565b600062000b738262000b7a565b9050919050565b600073ffffffffffffffffffffffffffffffffffffffff82169050919050565b6000819050919050565b600062000bb18262000bb8565b9050919050565b600062000bc58262000bcc565b9050919050565b600062000bd98262000b7a565b9050919050565b82818337600083830152505050565b60005b8381101562000c0f57808201518184015260208101905062000bf2565b8381111562000c1f576000848401525b50505050565b6000601f19601f8301169050919050565b62000c418162000b66565b811462000c4d57600080fd5b50565b62000c5b8162000b9a565b811462000c6757600080fd5b5056fe608060405260405180602001604052806000815250600090805190602001906200002b92919062000300565b5060405180602001604052806000815250600190805190602001906200005392919062000300565b506008600260006101000a81548160ff021916908360ff1602179055503480156200007d57600080fd5b50604051620012a6380380620012a683398181016040526080811015620000a357600080fd5b8101908080516040519392919084640100000000821115620000c457600080fd5b83820191506020820185811115620000db57600080fd5b8251866001820283011164010000000082111715620000f957600080fd5b8083526020830192505050908051906020019080838360005b838110156200012f57808201518184015260208101905062000112565b50505050905090810190601f1680156200015d5780820380516001836020036101000a031916815260200191505b50604052602001805160405193929190846401000000008211156200018157600080fd5b838201915060208201858111156200019857600080fd5b8251866001820283011164010000000082111715620001b657600080fd5b8083526020830192505050908051906020019080838360005b83811015620001ec578082015181840152602081019050620001cf565b50505050905090810190601f1680156200021a5780820380516001836020036101000a031916815260200191505b50604052602001805190602001909291908051906020019092919050505083600090805190602001906200025092919062000300565b5082600190805190602001906200026992919062000300565b508160038190555080600460006101000a81548173ffffffffffffffffffffffffffffffffffffffff021916908373ffffffffffffffffffffffffffffffffffffffff16021790555081600560003373ffffffffffffffffffffffffffffffffffffffff1673ffffffffffffffffffffffffffffffffffffffff1681526020019081526020016000208190555050505050620003af565b828054600181600116156101000203166002900490600052602060002090601f016020900481019282601f106200034357805160ff191683800117855562000374565b8280016001018555821562000374579182015b828111156200037357825182559160200191906001019062000356565b5b50905062000383919062000387565b5090565b620003ac91905b80821115620003a85760008160009055506001016200038e565b5090565b90565b610ee780620003bf6000396000f3fe608060405234801561001057600080fd5b50600436106100b45760003560e01c80635777e93d116100715780635777e93d146102b857806370a08231146102c257806395d89b411461031a5780639dc29fac1461039d578063a9059cbb146103eb578063dd62ed3e14610451576100b4565b806306fdde03146100b9578063095ea7b31461013c57806318160ddd146101a257806323b872dd146101c0578063313ce5671461024657806340c10f191461026a575b600080fd5b6100c16104c9565b6040518080602001828103825283818151815260200191508051906020019080838360005b838110156101015780820151818401526020810190506100e6565b50505050905090810190601f16801561012e5780820380516001836020036101000a031916815260200191505b509250505060405180910390f35b6101886004803603604081101561015257600080fd5b81019080803573ffffffffffffffffffffffffffffffffffffffff16906020019092919080359060200190929190505050610567565b604051808215151515815260200191505060405180910390f35b6101aa61057e565b6040518082815260200191505060405180910390f35b61022c600480360360608110156101d657600080fd5b81019080803573ffffffffffffffffffffffffffffffffffffffff169060200190929190803573ffffffffffffffffffffffffffffffffffffffff16906020019092919080359060200190929190505050610584565b604051808215151515815260200191505060405180910390f35b61024e61072f565b604051808260ff1660ff16815260200191505060405180910390f35b6102b66004803603604081101561028057600080fd5b81019080803573ffffffffffffffffffffffffffffffffffffffff16906020019092919080359060200190929190505050610742565b005b6102c061091f565b005b610304600480360360208110156102d857600080fd5b81019080803573ffffffffffffffffffffffffffffffffffffffff169060200190929190505050610921565b6040518082815260200191505060405180910390f35b610322610939565b6040518080602001828103825283818151815260200191508051906020019080838360005b83811015610362578082015181840152602081019050610347565b50505050905090810190601f16801561038f5780820380516001836020036101000a031916815260200191505b509250505060405180910390f35b6103e9600480360360408110156103b357600080fd5b81019080803573ffffffffffffffffffffffffffffffffffffffff169060200190929190803590602001909291905050506109d7565b005b6104376004803603604081101561040157600080fd5b81019080803573ffffffffffffffffffffffffffffffffffffffff16906020019092919080359060200190929190505050610af1565b604051808215151515815260200191505060405180910390f35b6104b36004803603604081101561046757600080fd5b81019080803573ffffffffffffffffffffffffffffffffffffffff169060200190929190803573ffffffffffffffffffffffffffffffffffffffff169060200190929190505050610b08565b6040518082815260200191505060405180910390f35b60008054600181600116156101000203166002900480601f01602080910402602001604051908101604052809291908181526020018280546001816001161561010002031660029004801561055f5780601f106105345761010080835404028352916020019161055f565b820191906000526020600020905b81548152906001019060200180831161054257829003601f168201915b505050505081565b6000610574338484610b2d565b6001905092915050565b60035481565b600080600660008673ffffffffffffffffffffffffffffffffffffffff1673ffffffffffffffffffffffffffffffffffffffff16815260200190815260200160002060003373ffffffffffffffffffffffffffffffffffffffff1673ffffffffffffffffffffffffffffffffffffffff16815260200190815260200160002054146107195761069882600660008773ffffffffffffffffffffffffffffffffffffffff1673ffffffffffffffffffffffffffffffffffffffff16815260200190815260200160002060003373ffffffffffffffffffffffffffffffffffffffff1673ffffffffffffffffffffffffffffffffffffffff16815260200190815260200160002054610c1890919063ffffffff16565b600660008673ffffffffffffffffffffffffffffffffffffffff1673ffffffffffffffffffffffffffffffffffffffff16815260200190815260200160002060003373ffffffffffffffffffffffffffffffffffffffff1673ffffffffffffffffffffffffffffffffffffffff168152602001908152602001600020819055505b610724848484610c9b565b600190509392505050565b600260009054906101000a900460ff1681565b600460009054906101000a900473ffffffffffffffffffffffffffffffffffffffff1673ffffffffffffffffffffffffffffffffffffffff163373ffffffffffffffffffffffffffffffffffffffff1614610805576040517f08c379a00000000000000000000000000000000000000000000000000000000081526004018080602001828103825260168152602001807f4f7065726174696f6e206e6f7720616c6c6f776564210000000000000000000081525060200191505060405180910390fd5b61081a81600354610e2f90919063ffffffff16565b60038190555061087281600560008573ffffffffffffffffffffffffffffffffffffffff1673ffffffffffffffffffffffffffffffffffffffff16815260200190815260200160002054610e2f90919063ffffffff16565b600560008473ffffffffffffffffffffffffffffffffffffffff1673ffffffffffffffffffffffffffffffffffffffff168152602001908152602001600020819055508173ffffffffffffffffffffffffffffffffffffffff16600073ffffffffffffffffffffffffffffffffffffffff167fddf252ad1be2c89b69c2b068fc378daa952ba7f163c4a11628f55a4df523b3ef836040518082815260200191505060405180910390a35050565b565b60056020528060005260406000206000915090505481565b60018054600181600116156101000203166002900480601f0160208091040260200160405190810160405280929190818152602001828054600181600116156101000203166002900480156109cf5780601f106109a4576101008083540402835291602001916109cf565b820191906000526020600020905b8154815290600101906020018083116109b257829003601f168201915b505050505081565b610a2981600560008573ffffffffffffffffffffffffffffffffffffffff1673ffffffffffffffffffffffffffffffffffffffff16815260200190815260200160002054610c1890919063ffffffff16565b600560008473ffffffffffffffffffffffffffffffffffffffff1673ffffffffffffffffffffffffffffffffffffffff16815260200190815260200160002081905550610a8181600354610c1890919063ffffffff16565b600381905550600073ffffffffffffffffffffffffffffffffffffffff168273ffffffffffffffffffffffffffffffffffffffff167fddf252ad1be2c89b69c2b068fc378daa952ba7f163c4a11628f55a4df523b3ef836040518082815260200191505060405180910390a35050565b6000610afe338484610c9b565b6001905092915050565b6006602052816000526040600020602052806000526040600020600091509150505481565b80600660008573ffffffffffffffffffffffffffffffffffffffff1673ffffffffffffffffffffffffffffffffffffffff16815260200190815260200160002060008473ffffffffffffffffffffffffffffffffffffffff1673ffffffffffffffffffffffffffffffffffffffff168152602001908152602001600020819055508173ffffffffffffffffffffffffffffffffffffffff168373ffffffffffffffffffffffffffffffffffffffff167f8c5be1e5ebec7d5bd14f71427d1e84f3dd0314c0f7b2291e5b200ac8c7c3b925836040518082815260200191505060405180910390a3505050565b6000828284039150811115610c95576040517f08c379a00000000000000000000000000000000000000000000000000000000081526004018080602001828103825260158152602001807f64732d6d6174682d7375622d756e646572666c6f77000000000000000000000081525060200191505060405180910390fd5b92915050565b610ced81600560008673ffffffffffffffffffffffffffffffffffffffff1673ffffffffffffffffffffffffffffffffffffffff16815260200190815260200160002054610c1890919063ffffffff16565b600560008573ffffffffffffffffffffffffffffffffffffffff1673ffffffffffffffffffffffffffffffffffffffff16815260200190815260200160002081905550610d8281600560008573ffffffffffffffffffffffffffffffffffffffff1673ffffffffffffffffffffffffffffffffffffffff16815260200190815260200160002054610e2f90919063ffffffff16565b600560008473ffffffffffffffffffffffffffffffffffffffff1673ffffffffffffffffffffffffffffffffffffffff168152602001908152602001600020819055508173ffffffffffffffffffffffffffffffffffffffff168373ffffffffffffffffffffffffffffffffffffffff167fddf252ad1be2c89b69c2b068fc378daa952ba7f163c4a11628f55a4df523b3ef836040518082815260200191505060405180910390a3505050565b6000828284019150811015610eac576040517f08c379a00000000000000000000000000000000000000000000000000000000081526004018080602001828103825260148152602001807f64732d6d6174682d6164642d6f766572666c6f7700000000000000000000000081525060200191505060405180910390fd5b9291505056fea265627a7a72315820ff4d8146b7d686beccf737a3c61955344784c3f4d536cc44eb541d29a07deda964736f6c63430005100032a365627a7a72315820ae27866a4d42c7d6785820111c9e28446499d68d6b51bdf8acde1419c2e9a36e6c6578706572696d656e74616cf564736f6c63430005100040",
  "source": "// SPDX-License-Identifier: GPL-3.0\r\n\r\npragma solidity >=0.5.0 <0.9.0;\r\npragma experimental ABIEncoderV2;\r\n\r\nimport './ERC20.sol';\r\n\r\ncontract CoinFactory {\r\n    \r\n    ERC20 token;\r\n    mapping (string => address) public tokensCreated;\r\n    mapping (address => string) public owners;\r\n    string[] private names;\r\n    \r\n    event TokenCreated (address owner, address token, string name);\r\n\r\n    function createERC20Token (string calldata _name, string calldata _symbol, uint _totalSupply) external returns (address) {\r\n        token = new ERC20 (_name, _symbol, _totalSupply, msg.sender);\r\n        tokensCreated[_name] = address(token);\r\n        names.push(_name);\r\n        emit TokenCreated(msg.sender, address(token), _symbol);\r\n        return address(token);\r\n    }\r\n    \r\n    function numberOfTokens () external view returns (uint) {\r\n        return names.length;\r\n    }\r\n    \r\n    function getNames() external view returns (string[] memory) {\r\n        return names;\r\n    }\r\n}",
  "sourcePath": "C:\\Users\\datej\\OneDrive\\Desktop\\crypto-internship\\createatoken\\contracts\\CoinFactory.sol",
  "compiler": {
    "name": "solc",
    "version": "0.5.16+commit.9c3226ce.Emscripten.clang"
  },
  "schemaVersion": "3.0.23",
  "updatedAt": "2021-07-23T14:37:19.308Z",
  "networkType": "ethereum",
  "devdoc": {
    "methods": {}
  },
  "userdoc": {
    "methods": {}
  }
}